:020000040000FA
:020000000A2FC5
:040002000034003492
:08000800880191180E28911ADD
:100010007F280B196428111AE42909009110FD1F8B
:100020005E282208A4072108A33D031C31286E1A6C
:100030002328A00A0730A005583020078400850136
:100040000008AA0031282100240C2506A600A60ECF
:10005000A40DA406A606260DA50DA40D240888014E
:10006000AA002708A9072608A83D031C4028A50ABE
:100070000730A50558302507840085010008AB002E
:100080002A08F0003308031949282A082B07F00032
:10009000F00C6D0803195E28083C03195328F10081
:1000A000F036F10B50287008E1008F00AD122D12D0
:1000B0002D088E002D162D088E00090061080319E9
:1000C00009006103F00053280B117D180900EE1997
:1000D00009003509B51B3508F000F013700ABD079B
:1000E0000301BC3DBC1D0900BC017D172100111698
:1000F0008801E70B09000330E700562109002300BF
:100100001908F0008801F01FBE28F83070020319AA
:100110004729FA3070020319BF29FB307002031916
:10012000D329FC3070020319DB293A08B03E700273
:100130000319A9283A08903E70020319B0283A081A
:10014000803E70020319B7287E12FE127E13FE1342
:1001500009007E12FE166E19FE127E13FE130900B0
:100160007E12FE127E17EE187E13FE1309007E1219
:10017000FE127E13FE17EE18FE1309007E1AC42825
:100180007008AE007E160900FE1ACB287E1B1929C6
:10019000FE1B382909007E122E08013C0319F128A4
:1001A0002E08023C0319F5282E08033C0319F928F0
:1001B0002E08043C0319FD282E08053C03190129CB
:1001C0002E08063C031908292E08073C03190D299F
:1001D0002E08183C031911292E08193C031915295A
:1001E0000900F0367036FA000900F0367036F80073
:1001F0000900F0367036F9000900F0367036F70065
:100200000900FD18090070363839083EE60009007B
:100210007035B500B51B351409007D11701B7D15B7
:1002200009006E12701B6E160900EE12701BEE169E
:1002300009007008031938297E121130AE02031C20
:10024000090040302E02031809002E08B900FE14E0
:10025000FD17FD140830E6000330E700BC01BD01C6
:1002600095010B116603E400B51BE4016F21090041
:100270007E121130AE02031C090040302E0203181A
:1002800009002E083902031D0900FE1009006E182E
:1002900009007D147D172100111688017E1C0900BC
:1002A000AC0B09000330AC00562109006308E407D9
:1002B00066086402031C6F297D090639031D632942
:1002C0006308E4020800E31B68290730E4056F298E
:1002D00064080739F000083066027007E40064081B
:1002E0000739B800FD187629EE1A7C296436F0002B
:1002F000F0367036B000A62963082100A307A319C1
:1003000083298801AD29A311200C2106A200A20E89
:10031000A00DA006A206220DA10DA00D8801B0011E
:100320004A36F100F00171080319A5290314F00DF4
:10033000F10B96297008210020058801B000F839DA
:100340000319A529BB01B001AD293008F000F00A5E
:10035000BB010314BB0DF00BAA293135F000F035B9
:100360007035380784009B3085000008ED00FD18CB
:100370000800FD173B082F050319FD1308006E1830
:1003800009007D147E14FD1521001116880104302A
:10039000AC00BC01BD0195010B116603E400B51B67
:1003A000E4016F2109006E1809007D147E147D168A
:1003B0002100111609006E1809007D147E10FD132E
:1003C000FD16210011160900FD19F3297D1AF629E1
:1003D000FD1AF9297D1BFC297E19FF29FE190C2A1B
:1003E0007F19192A0900FD11FA30252A7D12FB30E8
:1003F000252AFD12FC30252A7D13F830252AE80B2A
:10040000052A7E117F100030252AE818092A69087C
:10041000252A3A08803E252AE80B122AFE117F146D
:100420006B08252AE818162A6A08252A3A08903EF9
:10043000252AE80B1E2A7F113F08252AE818222AC0
:100440003E08252A3A08B03E252A23009A00FD19C5
:1004500009007D1A0900FD1A09007D1B09007E199B
:100460000900FE1909007F19090021001112090075
:100470002100013095002400F0308D002100603013
:100480009E008801FF308C00FF308D00C0308E0050
:10049000AD0000308F000030900023002F308C0022
:1004A00007308D008F01073090002100F030990057
:1004B00021006F308C00F7308D0000308E0000304E
:1004C0008F00FF30900088010330E700E8017F30A3
:1004D000EA00E900EB000830ED000030FD00FE010D
:1004E000FF01EE01EC01B701D401D501D6010130C5
:1004F000D700CE01CF01D001D101D201D301E0015B
:10050000FF30EF01CA012030C000C100C200C300AB
:10051000C400C500C600C7000030B000B8000830F5
:10052000E6000130BB00FF30AF003030A000A40077
:100530004530A100A500A301FF30D800D900DA00A2
:10054000DB00DC01DD01DE01DF01B201F701B101F9
:10055000F801F901B301FA01B401A001A501AC0150
:10056000E4018030CC00E5000130E300013085007B
:10057000A03084003030F20001301A00F20BBD2AA6
:1005800001308500403084000830F20000301A004D
:10059000F20BC72AFF30FB00FC00200004309C0057
:1005A000FF309B00210091148801C223C223C22383
:1005B000D019E526F2012627BA000730CF054E08EC
:1005C000D4004F08D5004F0E4E04EE006E080319FC
:1005D000F02A092509250925092509256E1B7D1500
:1005E000CE01CF01D001D101D201D30122232300BA
:1005F0003F309B0026309E0090309D0021009116D8
:1006000023001908190823001D121D168801FF3048
:100610008C008D00EE19192BFD157D179501E22434
:10062000FA246603E400B51BE4016F21E0308B007F
:100630000800D401D501AF01210091128801C0301A
:100640008B0008000830D50080230C30D5008023B3
:100650000E30D50080230F30D50080230830D40021
:1006600080230C30D40080230E30D40080230F3040
:10067000D40080230830D60080230C30D60080239D
:100680000E30D60080230F30D60080230730D500EF
:1006900080230330D50080230130D5008023003033
:1006A000D50080230730D40080230330D40080237A
:1006B0000130D40080230130D40080230730D600DD
:1006C00080230330D60080230130D600802380238E
:1006D0008023802380238023802380230130850092
:1006E000023087002030840086001030F20000368F
:1006F0008100023084078607F20B772BFF14080075
:10070000DD25B70A0E3037020319B7010B30BC00E4
:10071000FF30BD008E01FF308C00F7308D00560891
:100720008E0000000000000000008E01FF308D00F0
:100730007F308C0054088E00000000000000000094
:100740008E01FF308D00EF308C0055088E000000C8
:10075000000000000000BD0B8A2BBC0B8A2B080098
:100760000830F3006E08D4000830F2008623F20B44
:10077000B62BD4010830F2008623F20BBC2BF30B0E
:04078000B22B080090
:0C0784008D19D92BFF308D002D08F039A5
:100790005404AD008E007F308C0007306C05031DC3
:1007A0000800000000000D0EF20072090F39CE00A3
:1007B00008008C1BF02BFF308C002D08F0395504FD
:1007C000AD008E00EF308C0007306C05031D080073
:1007D000000000000D0EF20072090F39CF00080072
:1007E000FF308C002D08F0395604AD008E00F73034
:1007F0008D0007306C05031D0800000000000D0E81
:10080000F20072090F39D00008005708F3005008B1
:1008100053065005F2000319162C57060319142C21
:100820005008D700D600162CD701D6015008D300A7
:10083000570873065705F30001308500C030840067
:10084000013073188000840A840AF3188000840A37
:10085000840A73198000840A840AF319800008004E
:100860004E0851064E05AF064E08D1004F085206FD
:100870004F05F200720EAF064F08D2000800EE19C5
:1008800008003B082F05D400FD1C482CFE1CD40199
:100890003B0EF2002F0E7205D500080001308700D4
:1008A000850030308600571C5B2C403084001600D9
:1008B0001A0017008000D71C632C423084001600F9
:1008C0001A0017008000571D6B2C4430840016005E
:1008D0001A0017008000D71D732C463084001600C4
:1008E0001A00170080004808600203190800480831
:1008F000E0005718FA00D718F8005719F900D7196F
:10090000F7000800A524B3007736B2007836B100AE
:100910007A36B40034073407340734073407340711
:10092000340784009C3085001200D8001200D900E2
:100930001200DA001200DB001200DC001200DD0001
:100940001200DE001200DF00080079080B000034FE
:1009500001340134023402340334033404340434E3
:1009600004340534053405340634063406340734BB
:100970000734073408340834083409340934093496
:100980000A340A340A340B340B340B340C340B00A5
:10099000F834FC34FC34FE34FE34FF34FF34FF34CE
:1009A0000134013401340234023404340434083490
:1009B0000B00003401340234043408341034203481
:1009C00040347F344C0865020319E92C4C08E500DB
:1009D000B500FF30E300B51FEF2C0130E3007D1CB4
:1009E000F92C3508F200F236F236F2367236C724A8
:1009F000E3000800FD1808006F084A020319080008
:100A00004A08EF004A35F2007235F839083EE60030
:100A100008000830F5008623F50B0B2D5408F20072
:100A20005508F3005608F400D401D501D60108306A
:100A3000F5008623F50B192D7208D4007308D50034
:060A40007408D600080056
:0A0A46000C30F2000630F3004225E8
:100A50000A30F2000530F30042251030F200013078
:100A6000F30042251130F2000230F300422512302B
:100A7000F2000330F30042251330F2000430F3009B
:100A80004225080001308700A030720772078600F7
:100A9000011C512D20307207720786000136F500C7
:100AA000662D023087002030720772078600010829
:100AB000F4007435F500F51B751487030108F5077C
:100AC000F50CF536750874020319812D8B137E1908
:100AD000802DFE19802D7F19802D870A75088100D1
:100AE0008703A03072077207860081017308BE0079
:100AF0007508BF000330E8007F152100111688013A
:100B00008B1708000130F3000830F4001030F500B6
:100B10002F087B0673050319AF2D8B137E19802DCB
:100B2000FE19802D7F19802D7308FB067309FC05C3
:100B3000031DA02D7B080F39D4007B0E0F39D50083
:100B40007F30BF002F0873050319BF017508BE0071
:100B50000330E8007F15210011168801802DF33540
:100B6000F50AF40B882D08000730F2000830F30076
:100B700042250630F2000930F30042250530F2002C
:100B80000A30F30042250430F2000B30F300422516
:100B90000330F2000C30F30042250230F2000D3039
:100BA000F30042250130F2000E30F3004225003000
:0A0BB000F2000F30F30042250800A8
:060BBA003708F2003926A5
:100BC000F300403072078400850173080319003474
:100BD000F235723521009D001D1448269D149D1884
:100BE000EF2D1D101C08F200F5001B08F60073081D
:100BF000083C03191A2EF300F236F30BFC2D1C08E7
:100C0000031D052E1B0803191A2E1C08FF3C031D8B
:100C10000D2E1B08C03C03191A2EFF1C122E0008B3
:100C2000F207F20C000A720203191C2E0003720272
:100C300003191C2E720880008801203037073707FF
:100C400086000130870075081E0076088100750C4B
:100C5000F60CF636F636F636F636F6362100760817
:100C6000A0070318A10A7608A5070318A40A88019B
:100C700008000B00073407340734073407340734FF
:100C800007340734053400340434003408340034A5
:100C90000000000000000000000000000000000054
:100CA0000000000000000000000000000000000044
:100CB0000000000000000000000000000000000034
:100CC0000000000000000000000000000000000024
:020CD00008001A
:0E0CD200320832073207320732073207320784
:100CE0003207380784009A308500FD187D2E3008C1
:100CF000473C860087010136812E39308600870106
:100D0000010800070C3EF20072078400983085004D
:100D10001200A1001300A200330833078407120059
:100D2000A6000008A7000800EE190800FD18A62E6E
:100D30007D18A22E3B082F050319A02EFD17AA2E01
:100D4000FD13D02E7E189A2EFD13D02EFE189E2E47
:100D5000A02ED02EFD1808008B130530F2077E1947
:100D6000E32EFE19E32E7F19E32E6D08D824F3003D
:100D70007F18C22E7208EA007308EB000330E80007
:100D8000FE15E02E72086A02031DCA2E73086B025C
:100D90000319E32E6A08E9000330E8007E15E02E0F
:100DA000FD1808008B137F1CE32E7E19E32EFE191D
:100DB000E32E7F19E32E6A08E9000330E8007E1570
:0A0DC0002100111688018B170800AE
:060DCA00C2230830B7004F
:100DD000DD25D601D5010130D400F20048360739AF
:100DE000F3000319F62EF235F30BF32E72080F39C8
:100DF000D400720E0F39D500481AD615D019E52E39
:100E0000092509250925092509254836F300F20198
:040E10002E27080081
:0C0E14003822C223EC0A30243F240524BD
:100E2000DD25B70A0E3037020319B7014E2482249C
:100E30008B13E2248B178B13FA248B1769269426C5
:0C0E40002325EE1D0B2FB42582250B2F5F
:040E4C002300720805
:100E500091009513151413088801080023009518B4
:100E60002F2F7208910073089300951315155530B4
:100E70009600AA3096009514151195183D2F8801FB
:103000000000B7000000C1000000CD000000D900A2
:103010000000E6000000F4000100020001001200C0
:1030200001002200010033000100460001005900A8
:1030300001006E000100830001009B000100B3004D
:103040000100CD000100E80002000500020024009C
:10305000020045000200670002008C000200B3007D
:103060000200DC00030007000300360003006600D6
:1030700003009A000300D10004000B000400490083
:1030800004008A000400CF00050018000500660057
:103090000500B80006000F0006006C000600CD0019
:1030A000070035000700A300080017000800920081
:1030B0000900150009009F000A0031000A00CD0038
:1030C0000B0071000C001F000C00D8000D009B00CD
:1030D0000E006A000F00460010002E0011002500AF
:1030E00012002A0013003E001400630015009A002D
:1030F0001600E30018003F001900B0001B00370065
:103100001C00D5001E008C0020005D0022004A003B
:103110002400540026007D002800C7002B00340046
:103120002D00C60030007E003300610036006F00C5
:103130003900AB003D0019004000BB004400950081
:103140004800A9004C00FB0051008F0056006800A9
:103150005B008C006000FD006600C2006C00DE00B9
:10316000730057007A0033008100770089002A003D
:10317000910052009900F700A3001E00AC00D1009E
:10318000B7001800C100FB00CD008400D900BD00CD
:0C319000E600AF00F40067000200EF0052
:1034000000000000000000000000000000000000BC
:1034100000000000010001000000000001000100A8
:1034200000000000FC00FC0000000000FC00FC00AC
:103430000000010000000100000001000000010088
:103440000000FB000000FB000000FB000000FB0090
:103450000000010000000200000003000000040062
:103460000000FB00FE00F900FC00F700FB00F40088
:103470000000FF00FE00FD000000FF00FE00FD0058
:1034800000000000FB00FB00F400F400F400F40076
:103490000000FE00FC00FB00F900F700F600F4005D
:1034A00000000200040006000000FE00FC00FA001C
:1034B0000000FE00FC00FA00F800FA00FC00FE002C
:1034C00000000100020003000400030002000100EC
:1034D00000000100020003000400050006000700D0
:1034E0000000020004000500070009000B000C00AA
:1034F000000000000C000C000C000C000C000C0084
:10360000080008000800080008000800080008007A
:10361000080008000800080008000800070006006D
:10362000080008000800080006000400020000006E
:103630000800080008000700060005000400030059
:10364000080007000600050005000500050005004C
:103650000800070006000500040003000200010046
:10366000080007000600050007000600050004002A
:10367000080006000400020005000300020001002B
:103680000800050002000600050004000300020017
:10369000080005000200060003000100040001000C
:1036A0000800030006000200040001000200000000
:1036B00008000600040002000000020004000600EA
:1036C00008000700060005000500060007000800C6
:1036D00004000500060007000800070006000500BA
:1036E00005000600070008000300040005000600AE
:1036F0000300040005000600070008000800080099
:10380000FF00FF00FF00FF000000000000000000BC
:10381000FF00FF00FF0000000000000000000000AB
:10382000FF00FF000000000000000000000000009A
:10383000FF00000000000000000000000000000089
:10384000FF006C00480024000000000000000000A1
:10385000FF00B40090006C0048002400000000004D
:10386000FF00D800B40090006C0048002400000065
:10387000FF00D500AB00810057002D0000002D0097
:10388000FF00CC00990066003300000033006600A2
:10389000FF00DC007F002300000023007F00DC002D
:1038A000FF007F0000007F00FF007F0000007F001E
:1038B000FF00AA0055000000FF00AA00550000000C
:1038C000FF000000BF0000007F0000003F0000007C
:1038D000FF000000FF000000FF007F003F0000002D
:1038E000FF007F000000FF007F000000FF000000DD
:1038F000FF000000FF000000FF000000FF000000CC
:020000040001F9
:02000E00C43FED
:02001000EF1FE0
:02E0000000001E
:00000001FF
